{
  "contractName": "DocumentRegistry",
  "abi": [
    {
      "anonymous": false,
      "inputs": [
        {
          "indexed": false,
          "internalType": "string",
          "name": "documentHash",
          "type": "string"
        },
        {
          "indexed": false,
          "internalType": "string",
          "name": "filename",
          "type": "string"
        },
        {
          "indexed": false,
          "internalType": "string",
          "name": "fileType",
          "type": "string"
        },
        {
          "indexed": false,
          "internalType": "string",
          "name": "cid",
          "type": "string"
        },
        {
          "indexed": false,
          "internalType": "string",
          "name": "iv",
          "type": "string"
        },
        {
          "indexed": false,
          "internalType": "string",
          "name": "key",
          "type": "string"
        },
        {
          "indexed": false,
          "internalType": "string",
          "name": "fileCategory",
          "type": "string"
        }
      ],
      "name": "DocumentAdded",
      "type": "event"
    },
    {
      "anonymous": false,
      "inputs": [
        {
          "indexed": false,
          "internalType": "string",
          "name": "filename",
          "type": "string"
        },
        {
          "indexed": false,
          "internalType": "string",
          "name": "fileType",
          "type": "string"
        },
        {
          "indexed": false,
          "internalType": "string",
          "name": "cid",
          "type": "string"
        },
        {
          "indexed": false,
          "internalType": "string",
          "name": "iv",
          "type": "string"
        },
        {
          "indexed": false,
          "internalType": "string",
          "name": "key",
          "type": "string"
        },
        {
          "indexed": false,
          "internalType": "string",
          "name": "fileCategory",
          "type": "string"
        },
        {
          "indexed": false,
          "internalType": "string",
          "name": "documentHash",
          "type": "string"
        }
      ],
      "name": "DocumentRetrieved",
      "type": "event"
    },
    {
      "inputs": [
        {
          "internalType": "string",
          "name": "documentHash",
          "type": "string"
        },
        {
          "internalType": "string",
          "name": "filename",
          "type": "string"
        },
        {
          "internalType": "string",
          "name": "fileType",
          "type": "string"
        },
        {
          "internalType": "string",
          "name": "cid",
          "type": "string"
        },
        {
          "internalType": "string",
          "name": "iv",
          "type": "string"
        },
        {
          "internalType": "string",
          "name": "key",
          "type": "string"
        },
        {
          "internalType": "string",
          "name": "fileCategory",
          "type": "string"
        }
      ],
      "name": "addDocument",
      "outputs": [],
      "stateMutability": "nonpayable",
      "type": "function"
    },
    {
      "inputs": [
        {
          "internalType": "string",
          "name": "documentHash",
          "type": "string"
        },
        {
          "internalType": "string",
          "name": "providedKey",
          "type": "string"
        }
      ],
      "name": "getDocument",
      "outputs": [
        {
          "internalType": "string",
          "name": "",
          "type": "string"
        },
        {
          "internalType": "string",
          "name": "",
          "type": "string"
        },
        {
          "internalType": "string",
          "name": "",
          "type": "string"
        },
        {
          "internalType": "string",
          "name": "",
          "type": "string"
        },
        {
          "internalType": "string",
          "name": "",
          "type": "string"
        },
        {
          "internalType": "string",
          "name": "",
          "type": "string"
        },
        {
          "internalType": "string",
          "name": "",
          "type": "string"
        }
      ],
      "stateMutability": "view",
      "type": "function"
    },
    {
      "inputs": [
        {
          "internalType": "string",
          "name": "documentHash",
          "type": "string"
        }
      ],
      "name": "verifyDocument",
      "outputs": [
        {
          "internalType": "bool",
          "name": "",
          "type": "bool"
        }
      ],
      "stateMutability": "view",
      "type": "function"
    }
  ],
  "bytecode": "608060405234801561000f575f80fd5b506111028061001d5f395ff3fe608060405234801561000f575f80fd5b506004361061003f575f3560e01c806353ec87111461004357806359a2a63014610079578063beee5eb714610095575b5f80fd5b61005d6004803603810190610058919061084d565b6100c5565b604051610070979695949392919061093d565b60405180910390f35b610093600480360381019061008e91906109db565b610541565b005b6100af60048036038101906100aa9190610b3c565b6106c9565b6040516100bc9190610b9d565b60405180910390f35b60608060608060608060605f808a6040516100e09190610bf0565b908152602001604051809103902090505f815f0180546100ff90610c33565b905003610141576040517f08c379a000000000000000000000000000000000000000000000000000000000815260040161013890610cad565b60405180910390fd5b886040516020016101529190610bf0565b604051602081830303815290604052805190602001208160040160405160200161017c9190610d5d565b60405160208183030381529060405280519060200120146101d2576040517f08c379a00000000000000000000000000000000000000000000000000000000081526004016101c990610de3565b60405180910390fd5b805f0181600101826002018360030184600401856005018f8680546101f690610c33565b80601f016020809104026020016040519081016040528092919081815260200182805461022290610c33565b801561026d5780601f106102445761010080835404028352916020019161026d565b820191905f5260205f20905b81548152906001019060200180831161025057829003601f168201915b5050505050965085805461028090610c33565b80601f01602080910402602001604051908101604052809291908181526020018280546102ac90610c33565b80156102f75780601f106102ce576101008083540402835291602001916102f7565b820191905f5260205f20905b8154815290600101906020018083116102da57829003601f168201915b5050505050955084805461030a90610c33565b80601f016020809104026020016040519081016040528092919081815260200182805461033690610c33565b80156103815780601f1061035857610100808354040283529160200191610381565b820191905f5260205f20905b81548152906001019060200180831161036457829003601f168201915b5050505050945083805461039490610c33565b80601f01602080910402602001604051908101604052809291908181526020018280546103c090610c33565b801561040b5780601f106103e25761010080835404028352916020019161040b565b820191905f5260205f20905b8154815290600101906020018083116103ee57829003601f168201915b5050505050935082805461041e90610c33565b80601f016020809104026020016040519081016040528092919081815260200182805461044a90610c33565b80156104955780601f1061046c57610100808354040283529160200191610495565b820191905f5260205f20905b81548152906001019060200180831161047857829003601f168201915b505050505092508180546104a890610c33565b80601f01602080910402602001604051908101604052809291908181526020018280546104d490610c33565b801561051f5780601f106104f65761010080835404028352916020019161051f565b820191905f5260205f20905b81548152906001019060200180831161050257829003601f168201915b5050505050915097509750975097509750975097505092959891949750929550565b5f80886040516105519190610bf0565b90815260200160405180910390205f01805461056c90610c33565b9050146105ae576040517f08c379a00000000000000000000000000000000000000000000000000000000081526004016105a590610e4b565b60405180910390fd5b6040518060c00160405280878152602001868152602001858152602001848152602001838152602001828152505f886040516105ea9190610bf0565b90815260200160405180910390205f820151815f01908161060b9190610ffd565b5060208201518160010190816106219190610ffd565b5060408201518160020190816106379190610ffd565b50606082015181600301908161064d9190610ffd565b5060808201518160040190816106639190610ffd565b5060a08201518160050190816106799190610ffd565b509050507f8a3ef8de55286df41df28631f4ff3edf7f351cf08e503aa5d1964e42492b3fb8878787878787876040516106b8979695949392919061093d565b60405180910390a150505050505050565b5f805f836040516106da9190610bf0565b90815260200160405180910390205f0180546106f590610c33565b905014159050919050565b5f604051905090565b5f80fd5b5f80fd5b5f80fd5b5f80fd5b5f601f19601f8301169050919050565b7f4e487b71000000000000000000000000000000000000000000000000000000005f52604160045260245ffd5b61075f82610719565b810181811067ffffffffffffffff8211171561077e5761077d610729565b5b80604052505050565b5f610790610700565b905061079c8282610756565b919050565b5f67ffffffffffffffff8211156107bb576107ba610729565b5b6107c482610719565b9050602081019050919050565b828183375f83830152505050565b5f6107f16107ec846107a1565b610787565b90508281526020810184848401111561080d5761080c610715565b5b6108188482856107d1565b509392505050565b5f82601f83011261083457610833610711565b5b81356108448482602086016107df565b91505092915050565b5f806040838503121561086357610862610709565b5b5f83013567ffffffffffffffff8111156108805761087f61070d565b5b61088c85828601610820565b925050602083013567ffffffffffffffff8111156108ad576108ac61070d565b5b6108b985828601610820565b9150509250929050565b5f81519050919050565b5f82825260208201905092915050565b5f5b838110156108fa5780820151818401526020810190506108df565b5f8484015250505050565b5f61090f826108c3565b61091981856108cd565b93506109298185602086016108dd565b61093281610719565b840191505092915050565b5f60e0820190508181035f830152610955818a610905565b905081810360208301526109698189610905565b9050818103604083015261097d8188610905565b905081810360608301526109918187610905565b905081810360808301526109a58186610905565b905081810360a08301526109b98185610905565b905081810360c08301526109cd8184610905565b905098975050505050505050565b5f805f805f805f60e0888a0312156109f6576109f5610709565b5b5f88013567ffffffffffffffff811115610a1357610a1261070d565b5b610a1f8a828b01610820565b975050602088013567ffffffffffffffff811115610a4057610a3f61070d565b5b610a4c8a828b01610820565b965050604088013567ffffffffffffffff811115610a6d57610a6c61070d565b5b610a798a828b01610820565b955050606088013567ffffffffffffffff811115610a9a57610a9961070d565b5b610aa68a828b01610820565b945050608088013567ffffffffffffffff811115610ac757610ac661070d565b5b610ad38a828b01610820565b93505060a088013567ffffffffffffffff811115610af457610af361070d565b5b610b008a828b01610820565b92505060c088013567ffffffffffffffff811115610b2157610b2061070d565b5b610b2d8a828b01610820565b91505092959891949750929550565b5f60208284031215610b5157610b50610709565b5b5f82013567ffffffffffffffff811115610b6e57610b6d61070d565b5b610b7a84828501610820565b91505092915050565b5f8115159050919050565b610b9781610b83565b82525050565b5f602082019050610bb05f830184610b8e565b92915050565b5f81905092915050565b5f610bca826108c3565b610bd48185610bb6565b9350610be48185602086016108dd565b80840191505092915050565b5f610bfb8284610bc0565b915081905092915050565b7f4e487b71000000000000000000000000000000000000000000000000000000005f52602260045260245ffd5b5f6002820490506001821680610c4a57607f821691505b602082108103610c5d57610c5c610c06565b5b50919050565b7f446f63756d656e7420646f6573206e6f742065786973740000000000000000005f82015250565b5f610c976017836108cd565b9150610ca282610c63565b602082019050919050565b5f6020820190508181035f830152610cc481610c8b565b9050919050565b5f819050815f5260205f209050919050565b5f8154610ce981610c33565b610cf38186610bb6565b9450600182165f8114610d0d5760018114610d2257610d54565b60ff1983168652811515820286019350610d54565b610d2b85610ccb565b5f5b83811015610d4c57815481890152600182019150602081019050610d2d565b838801955050505b50505092915050565b5f610d688284610cdd565b915081905092915050565b7f4b6579206973206e6f74206d61746368696e67207769746820646f63756d656e5f8201527f7420686173680000000000000000000000000000000000000000000000000000602082015250565b5f610dcd6026836108cd565b9150610dd882610d73565b604082019050919050565b5f6020820190508181035f830152610dfa81610dc1565b9050919050565b7f446f63756d656e7420616c7265616479206578697374730000000000000000005f82015250565b5f610e356017836108cd565b9150610e4082610e01565b602082019050919050565b5f6020820190508181035f830152610e6281610e29565b9050919050565b5f6020601f8301049050919050565b5f82821b905092915050565b5f60088302610eb37fffffffffffffffffffffffffffffffffffffffffffffffffffffffffffffffff82610e78565b610ebd8683610e78565b95508019841693508086168417925050509392505050565b5f819050919050565b5f819050919050565b5f610f01610efc610ef784610ed5565b610ede565b610ed5565b9050919050565b5f819050919050565b610f1a83610ee7565b610f2e610f2682610f08565b848454610e84565b825550505050565b5f90565b610f42610f36565b610f4d818484610f11565b505050565b5b81811015610f7057610f655f82610f3a565b600181019050610f53565b5050565b601f821115610fb557610f8681610ccb565b610f8f84610e69565b81016020851015610f9e578190505b610fb2610faa85610e69565b830182610f52565b50505b505050565b5f82821c905092915050565b5f610fd55f1984600802610fba565b1980831691505092915050565b5f610fed8383610fc6565b9150826002028217905092915050565b611006826108c3565b67ffffffffffffffff81111561101f5761101e610729565b5b6110298254610c33565b611034828285610f74565b5f60209050601f831160018114611065575f8415611053578287015190505b61105d8582610fe2565b8655506110c4565b601f19841661107386610ccb565b5f5b8281101561109a57848901518255600182019150602085019450602081019050611075565b868310156110b757848901516110b3601f891682610fc6565b8355505b6001600288020188555050505b50505050505056fea26469706673582212201cc0f40714c6ead3835ddf3ec3224902821367ed87e86e3c1a69e398f67840cd64736f6c63430008180033",
  "deployedBytecode": "0x608060405234801561000f575f80fd5b506004361061003f575f3560e01c806353ec871114610043578063738317cb14610078578063beee5eb714610094575b5f80fd5b61005d60048036038101906100589190610793565b6100c4565b60405161006f96959493929190610883565b60405180910390f35b610092600480360381019061008d919061090c565b6104ac565b005b6100ae60048036038101906100a99190610a3d565b61060f565b6040516100bb9190610a9e565b60405180910390f35b6060806060806060805f80896040516100dd9190610af1565b908152602001604051809103902090505f815f0180546100fc90610b34565b90500361013e576040517f08c379a000000000000000000000000000000000000000000000000000000000815260040161013590610bae565b60405180910390fd5b8760405160200161014f9190610af1565b60405160208183030381529060405280519060200120816004016040516020016101799190610c5e565b60405160208183030381529060405280519060200120146101cf576040517f08c379a00000000000000000000000000000000000000000000000000000000081526004016101c690610ce4565b60405180910390fd5b805f01816001018260020183600301846004018d8580546101ef90610b34565b80601f016020809104026020016040519081016040528092919081815260200182805461021b90610b34565b80156102665780601f1061023d57610100808354040283529160200191610266565b820191905f5260205f20905b81548152906001019060200180831161024957829003601f168201915b5050505050955084805461027990610b34565b80601f01602080910402602001604051908101604052809291908181526020018280546102a590610b34565b80156102f05780601f106102c7576101008083540402835291602001916102f0565b820191905f5260205f20905b8154815290600101906020018083116102d357829003601f168201915b5050505050945083805461030390610b34565b80601f016020809104026020016040519081016040528092919081815260200182805461032f90610b34565b801561037a5780601f106103515761010080835404028352916020019161037a565b820191905f5260205f20905b81548152906001019060200180831161035d57829003601f168201915b5050505050935082805461038d90610b34565b80601f01602080910402602001604051908101604052809291908181526020018280546103b990610b34565b80156104045780601f106103db57610100808354040283529160200191610404565b820191905f5260205f20905b8154815290600101906020018083116103e757829003601f168201915b5050505050925081805461041790610b34565b80601f016020809104026020016040519081016040528092919081815260200182805461044390610b34565b801561048e5780601f106104655761010080835404028352916020019161048e565b820191905f5260205f20905b81548152906001019060200180831161047157829003601f168201915b50505050509150965096509650965096509650509295509295509295565b5f80876040516104bc9190610af1565b90815260200160405180910390205f0180546104d790610b34565b905014610519576040517f08c379a000000000000000000000000000000000000000000000000000000000815260040161051090610d4c565b60405180910390fd5b6040518060a00160405280868152602001858152602001848152602001838152602001828152505f8760405161054f9190610af1565b90815260200160405180910390205f820151815f0190816105709190610efe565b5060208201518160010190816105869190610efe565b50604082015181600201908161059c9190610efe565b5060608201518160030190816105b29190610efe565b5060808201518160040190816105c89190610efe565b509050507f36c3243db0146e4cc82c3cb6d524d1c25eab4b605f402ed995e76e17d5d22e798686866040516105ff93929190610fcd565b60405180910390a1505050505050565b5f805f836040516106209190610af1565b90815260200160405180910390205f01805461063b90610b34565b905014159050919050565b5f604051905090565b5f80fd5b5f80fd5b5f80fd5b5f80fd5b5f601f19601f8301169050919050565b7f4e487b71000000000000000000000000000000000000000000000000000000005f52604160045260245ffd5b6106a58261065f565b810181811067ffffffffffffffff821117156106c4576106c361066f565b5b80604052505050565b5f6106d6610646565b90506106e2828261069c565b919050565b5f67ffffffffffffffff8211156107015761070061066f565b5b61070a8261065f565b9050602081019050919050565b828183375f83830152505050565b5f610737610732846106e7565b6106cd565b9050828152602081018484840111156107535761075261065b565b5b61075e848285610717565b509392505050565b5f82601f83011261077a57610779610657565b5b813561078a848260208601610725565b91505092915050565b5f80604083850312156107a9576107a861064f565b5b5f83013567ffffffffffffffff8111156107c6576107c5610653565b5b6107d285828601610766565b925050602083013567ffffffffffffffff8111156107f3576107f2610653565b5b6107ff85828601610766565b9150509250929050565b5f81519050919050565b5f82825260208201905092915050565b5f5b83811015610840578082015181840152602081019050610825565b5f8484015250505050565b5f61085582610809565b61085f8185610813565b935061086f818560208601610823565b6108788161065f565b840191505092915050565b5f60c0820190508181035f83015261089b818961084b565b905081810360208301526108af818861084b565b905081810360408301526108c3818761084b565b905081810360608301526108d7818661084b565b905081810360808301526108eb818561084b565b905081810360a08301526108ff818461084b565b9050979650505050505050565b5f805f805f8060c087890312156109265761092561064f565b5b5f87013567ffffffffffffffff81111561094357610942610653565b5b61094f89828a01610766565b965050602087013567ffffffffffffffff8111156109705761096f610653565b5b61097c89828a01610766565b955050604087013567ffffffffffffffff81111561099d5761099c610653565b5b6109a989828a01610766565b945050606087013567ffffffffffffffff8111156109ca576109c9610653565b5b6109d689828a01610766565b935050608087013567ffffffffffffffff8111156109f7576109f6610653565b5b610a0389828a01610766565b92505060a087013567ffffffffffffffff811115610a2457610a23610653565b5b610a3089828a01610766565b9150509295509295509295565b5f60208284031215610a5257610a5161064f565b5b5f82013567ffffffffffffffff811115610a6f57610a6e610653565b5b610a7b84828501610766565b91505092915050565b5f8115159050919050565b610a9881610a84565b82525050565b5f602082019050610ab15f830184610a8f565b92915050565b5f81905092915050565b5f610acb82610809565b610ad58185610ab7565b9350610ae5818560208601610823565b80840191505092915050565b5f610afc8284610ac1565b915081905092915050565b7f4e487b71000000000000000000000000000000000000000000000000000000005f52602260045260245ffd5b5f6002820490506001821680610b4b57607f821691505b602082108103610b5e57610b5d610b07565b5b50919050565b7f446f63756d656e7420646f6573206e6f742065786973740000000000000000005f82015250565b5f610b98601783610813565b9150610ba382610b64565b602082019050919050565b5f6020820190508181035f830152610bc581610b8c565b9050919050565b5f819050815f5260205f209050919050565b5f8154610bea81610b34565b610bf48186610ab7565b9450600182165f8114610c0e5760018114610c2357610c55565b60ff1983168652811515820286019350610c55565b610c2c85610bcc565b5f5b83811015610c4d57815481890152600182019150602081019050610c2e565b838801955050505b50505092915050565b5f610c698284610bde565b915081905092915050565b7f4b6579206973206e6f74206d61746368696e67207769746820646f63756d656e5f8201527f7420686173680000000000000000000000000000000000000000000000000000602082015250565b5f610cce602683610813565b9150610cd982610c74565b604082019050919050565b5f6020820190508181035f830152610cfb81610cc2565b9050919050565b7f446f63756d656e7420616c7265616479206578697374730000000000000000005f82015250565b5f610d36601783610813565b9150610d4182610d02565b602082019050919050565b5f6020820190508181035f830152610d6381610d2a565b9050919050565b5f6020601f8301049050919050565b5f82821b905092915050565b5f60088302610db47fffffffffffffffffffffffffffffffffffffffffffffffffffffffffffffffff82610d79565b610dbe8683610d79565b95508019841693508086168417925050509392505050565b5f819050919050565b5f819050919050565b5f610e02610dfd610df884610dd6565b610ddf565b610dd6565b9050919050565b5f819050919050565b610e1b83610de8565b610e2f610e2782610e09565b848454610d85565b825550505050565b5f90565b610e43610e37565b610e4e818484610e12565b505050565b5b81811015610e7157610e665f82610e3b565b600181019050610e54565b5050565b601f821115610eb657610e8781610bcc565b610e9084610d6a565b81016020851015610e9f578190505b610eb3610eab85610d6a565b830182610e53565b50505b505050565b5f82821c905092915050565b5f610ed65f1984600802610ebb565b1980831691505092915050565b5f610eee8383610ec7565b9150826002028217905092915050565b610f0782610809565b67ffffffffffffffff811115610f2057610f1f61066f565b5b610f2a8254610b34565b610f35828285610e75565b5f60209050601f831160018114610f66575f8415610f54578287015190505b610f5e8582610ee3565b865550610fc5565b601f198416610f7486610bcc565b5f5b82811015610f9b57848901518255600182019150602085019450602081019050610f76565b86831015610fb85784890151610fb4601f891682610ec7565b8355505b6001600288020188555050505b505050505050565b5f6060820190508181035f830152610fe5818661084b565b90508181036020830152610ff9818561084b565b9050818103604083015261100d818461084b565b905094935050505056fea264697066735822122051def19a10b9b568cfb66f9ae369830358555e8c8d7028013c2a278cfe53eeae64736f6c63430008150033",
  "immutableReferences": {},
  "source": "// SPDX-License-Identifier: UNLICENSED\r\npragma solidity ^0.8.0;\r\n\r\ncontract DocumentRegistry {\r\n    struct Document {\r\n        string filename;\r\n        string fileType;\r\n        string cid;\r\n        string iv;\r\n        string key;\r\n    }\r\n\r\n    mapping(string => Document) documents;\r\n\r\n    event DocumentAdded(string documentHash, string filename, string fileType);\r\n    event DocumentRetrieved(\r\n        string filename,\r\n        string fileType,\r\n        string cid,\r\n        string iv,\r\n        string key,\r\n        string documentHash\r\n    );\r\n\r\n    function addDocument(\r\n        string memory documentHash,\r\n        string memory filename,\r\n        string memory fileType,\r\n        string memory cid,\r\n        string memory iv,\r\n        string memory key\r\n    ) public {\r\n        if (bytes(documents[documentHash].filename).length != 0) {\r\n            revert(\"Document already exists\");\r\n        }\r\n\r\n        documents[documentHash] = Document(filename, fileType, cid, iv, key);\r\n        emit DocumentAdded(documentHash, filename, fileType);\r\n    }\r\n\r\n    function verifyDocument(\r\n        string memory documentHash\r\n    ) public view returns (bool) {\r\n        return bytes(documents[documentHash].filename).length != 0;\r\n    }\r\n\r\n    function getDocument(\r\n        string memory documentHash,\r\n        string memory providedKey\r\n    )\r\n        public\r\n        view\r\n        returns (\r\n            string memory,\r\n            string memory,\r\n            string memory,\r\n            string memory,\r\n            string memory,\r\n            string memory\r\n        )\r\n    {\r\n        Document storage doc = documents[documentHash];\r\n\r\n        require(bytes(doc.filename).length != 0, \"Document does not exist\");\r\n\r\n        if (\r\n            keccak256(abi.encodePacked(doc.key)) !=\r\n            keccak256(abi.encodePacked(providedKey))\r\n        ) {\r\n            revert(\"Key is not matching with document hash\");\r\n        }\r\n\r\n        return (\r\n            doc.filename,\r\n            doc.fileType,\r\n            doc.cid,\r\n            doc.iv,\r\n            doc.key,\r\n            documentHash\r\n        );\r\n    }\r\n}\r\n",
  "sourcePath": "C:\\Users\\vinee\\Desktop\\VIJETH\\FinalYearProject\\contracts\\docRegistry.sol",
  "compiler": {
    "name": "solc",
    "version": "0.8.21+commit.d9974bed.Emscripten.clang"
  },
  "schemaVersion": "3.4.16",
  "updatedAt": "2024-04-11T07:10:07.693Z",
  "devdoc": {
    "kind": "dev",
    "methods": {},
    "version": 1
  },
  "userdoc": {
    "kind": "user",
    "methods": {},
    "version": 1
  }
}